:020000040000fa
:080000000002040000000000f2
:020000040000fa
:0400080050030000a1
:020000040000fa
:04000c00500300009d
:020000040000fa
:040010005003000099
:020000040000fa
:040014005003000095
:020000040000fa
:040018005003000091
:020000040000fa
:04001c00500300008d
:020000040000fa
:040020005003000089
:020000040000fa
:040024005003000085
:020000040000fa
:040028005003000081
:020000040000fa
:04002c00500300007d
:020000040000fa
:040030005003000079
:020000040000fa
:040034005003000075
:020000040000fa
:040038005003000071
:020000040000fa
:04003c00500300006d
:020000040000fa
:040040005003000069
:020000040000fa
:040044005003000065
:020000040000fa
:04004800c8020000ea
:020000040000fa
:04004c00500300005d
:020000040000fa
:040050005003000059
:020000040000fa
:040054005003000055
:020000040000fa
:040058005003000051
:020000040000fa
:04005c00500300004d
:020000040000fa
:040060005003000049
:020000040000fa
:040064005003000045
:020000040000fa
:040068005003000041
:020000040000fa
:04006c00500300003d
:020000040000fa
:040070005003000039
:020000040000fa
:040074005003000035
:020000040000fa
:040078005003000031
:020000040000fa
:04007c00500300002d
:020000040000fa
:040080005003000029
:020000040000fa
:040084005003000025
:020000040000fa
:040088005003000021
:020000040000fa
:04008c00500300001d
:020000040000fa
:040090005003000019
:020000040000fa
:040094005003000015
:020000040000fa
:040098005003000011
:020000040000fa
:04009c00500300000d
:020000040000fa
:0400a0005003000009
:020000040000fa
:0400a4005003000005
:020000040000fa
:0400a8005003000001
:020000040000fa
:0400ac0050030000fd
:020000040000fa
:0400b00050030000f9
:020000040000fa
:0400b40050030000f5
:020000040000fa
:0400b80050030000f1
:020000040000fa
:0400bc0050030000ed
:020000040000fa
:0400c00050030000e9
:020000040000fa
:0400c40050030000e5
:020000040000fa
:0400c80050030000e1
:020000040000fa
:0400cc0050030000dd
:020000040000fa
:0400d00050030000d9
:020000040000fa
:0400d40050030000d5
:020000040000fa
:0400d80050030000d1
:020000040000fa
:0400dc0050030000cd
:020000040000fa
:0400e00050030000c9
:020000040000fa
:0400e40050030000c5
:020000040000fa
:0400e80050030000c1
:020000040000fa
:0400ec0050030000bd
:020000040000fa
:0400f00050030000b9
:020000040000fa
:0400f40050030000b5
:020000040000fa
:0400f80050030000b1
:020000040000fa
:0400fc0050030000ad
:020000040000fa
:0401000050030000a8
:020000040000fa
:0401040050030000a4
:020000040000fa
:0401080050030000a0
:020000040000fa
:04010c00500300009c
:020000040000fa
:040110005003000098
:020000040000fa
:040114005003000094
:020000040000fa
:040118005003000090
:020000040000fa
:04011c00500300008c
:020000040000fa
:040120005003000088
:020000040000fa
:040124005003000084
:020000040000fa
:040128005003000080
:020000040000fa
:04012c00500300007c
:020000040000fa
:040130005003000078
:020000040000fa
:040134005003000074
:020000040000fa
:040138005003000070
:020000040000fa
:04013c00500300006c
:020000040000fa
:040140005003000068
:020000040000fa
:040144005003000064
:020000040000fa
:040148005003000060
:020000040000fa
:04014c00500300005c
:020000040000fa
:040150005003000058
:020000040000fa
:04020800500300009f
:020000040000fa
:04020c00500300009b
:020000040000fa
:040210005003000097
:020000040000fa
:040214005003000093
:020000040000fa
:04021800500300008f
:020000040000fa
:04021c00500300008b
:020000040000fa
:040220005003000087
:020000040000fa
:040224005003000083
:020000040000fa
:04022800500300007f
:020000040000fa
:04022c00500300007b
:020000040000fa
:040230005003000077
:020000040000fa
:040234005003000073
:020000040000fa
:04023800500300006f
:020000040000fa
:04023c00500300006b
:020000040000fa
:040240005003000067
:020000040000fa
:040244005003000063
:020000040000fa
:04024800c8020000e8
:020000040000fa
:04024c00500300005b
:020000040000fa
:040250005003000057
:020000040000fa
:040254005003000053
:020000040000fa
:04025800500300004f
:020000040000fa
:04025c00500300004b
:020000040000fa
:040260005003000047
:020000040000fa
:040264005003000043
:020000040000fa
:04026800500300003f
:020000040000fa
:04026c00500300003b
:020000040000fa
:040270005003000037
:020000040000fa
:040274005003000033
:020000040000fa
:04027800500300002f
:020000040000fa
:04027c00500300002b
:020000040000fa
:040280005003000027
:020000040000fa
:040284005003000023
:020000040000fa
:04028800500300001f
:020000040000fa
:04028c00500300001b
:020000040000fa
:040290005003000017
:020000040000fa
:040294005003000013
:020000040000fa
:04029800500300000f
:020000040000fa
:04029c00500300000b
:020000040000fa
:0402a0005003000007
:020000040000fa
:0402a4005003000003
:020000040000fa
:0402a80050030000ff
:020000040000fa
:0402ac0050030000fb
:020000040000fa
:0402b00050030000f7
:020000040000fa
:0402b40050030000f3
:020000040000fa
:0402b80050030000ef
:020000040000fa
:0402bc0050030000eb
:020000040000fa
:0402c00050030000e7
:020000040000fa
:0402c40050030000e3
:020000040000fa
:0402c80050030000df
:020000040000fa
:0402cc0050030000db
:020000040000fa
:0402d00050030000d7
:020000040000fa
:0402d40050030000d3
:020000040000fa
:0402d80050030000cf
:020000040000fa
:0402dc0050030000cb
:020000040000fa
:0402e00050030000c7
:020000040000fa
:0402e40050030000c3
:020000040000fa
:0402e80050030000bf
:020000040000fa
:0402ec0050030000bb
:020000040000fa
:0402f00050030000b7
:020000040000fa
:0402f40050030000b3
:020000040000fa
:0402f80050030000af
:020000040000fa
:0402fc0050030000ab
:020000040000fa
:0403000050030000a6
:020000040000fa
:0403040050030000a2
:020000040000fa
:04030800500300009e
:020000040000fa
:04030c00500300009a
:020000040000fa
:040310005003000096
:020000040000fa
:040314005003000092
:020000040000fa
:04031800500300008e
:020000040000fa
:04031c00500300008a
:020000040000fa
:040320005003000086
:020000040000fa
:040324005003000082
:020000040000fa
:04032800500300007e
:020000040000fa
:04032c00500300007a
:020000040000fa
:040330005003000076
:020000040000fa
:040334005003000072
:020000040000fa
:04033800500300006e
:020000040000fa
:04033c00500300006a
:020000040000fa
:040340005003000066
:020000040000fa
:040344005003000062
:020000040000fa
:04034800500300005e
:020000040000fa
:04034c00500300005a
:020000040000fa
:040350005003000056
:020000040000fa
:100400006f8220000eff20000e0188000000000017
:10041000000020000000e000020032000001200087
:1004200020028800140007009f0007000000e00081
:1004300003003a00404a210001002000020037007a
:100440000000200001002000810f70000100320038
:1004500014000700000020000000e000020032004d
:100460000000020000000000c413020000000000b1
:100470000040da000000fe004440a900800a20008d
:100480000000e0000300320000002000a00188000e
:100490004440a800000006008a1f78008b1f7800e7
:1004a0000000060091018800800478000000eb0045
:1004b0001a003700e284440032a0b4009905ba0063
:1004c000e284440032a0b4009906ba00e2844400f9
:1004d00032a0b4000006eb00476fde00fd07b2005b
:1004e000636ce10003003a00ebff07000000eb0043
:1004f0000a003700606ce10004003a00005deb0088
:100500008b05e900fdff3e00040037006168e10053
:10051000010032000086eb000b00070019c7ba008b
:100520001905ba000e04e00003003a000a00e000da
:10053000e0ff3a0000000600fe07b2009e018800be
:100540008a047800f5ff3700395dba008b05e900b1
:100550000c003200295dba008b05e900080032006a
:100560000c00e00003003a00e284440032a0b40032
:10057000f5ff370019ddba008b05e900faff3a00f4
:100580008904e800e184440032a0b40000000600c1
:10059000809fbe003400f80000002000a001880009
:1005a0000200fa0004c8bf000080fb00410e2900d1
:1005b000614078008080fb0002c8bf000080fb0023
:1005c0000088b90080007800100828000008b800f2
:1005d0004708de00000f78009e007800010c8800bc
:1005e00000c8bf000080fb00410e29006140780078
:1005f0008080fb0002c8bf000080fb000088b900bb
:1006000080007800100828000008b8004708de00c5
:10061000000f78009e007800310c880001c8bf00f0
:100620000080fb00410e2900614078008080fb00c3
:1006300002c8bf000080fb000088b900800078007d
:10064000100828000008b8004708de00000f7800f6
:100650001e00780000004000d00e880004c8bf00d3
:100660000040e8000074a10004e8b70000c8bf0023
:100670000040e8000074a10000e8b70001c8bf0016
:100680000040e8000074a10001e8b7008500a9005f
:100690000080fa003400f9004f00be000040060060
:1006a0000040da000000fe00000005006022b800f3
:1006b000060220000000d0008180d2000482d20017
:1006c0008582d2000000a0000202520083825a00fc
:1006d000030031000202420083824a000000a100b0
:1006e0000603e900f3ff3a00000006000000fa00ec
:1006f00068815700cfb89700e20107000080fa0038
:1007000000000600060007005e0007000f0107005a
:10071000370107009000070032020700dd013700b3
:10072000ec874700889fbe008a9fbe008c9fbe005a
:100730008e1f7800000678000104780018079000ea
:100740002805900098067800cdb79f00b805900066
:100750003202be002203be000400be000601be003d
:100760004f18de006011b8008000eb00d0b79f008a
:10077000e1b79f00f2b79f0083bf9f00800478001d
:100780000900e000060032006000b8006011b80007
:1007900004025000858258000603590087835900df
:1007a0000e00e000020035000d10a100cdb79f0043
:1007b0000900e00005003a004fb097000028a300b0
:1007c00002003a000038a300020032008a00e9006b
:1007d000010037008a007800f8815700a20020004d
:1007e00008007800860007000900e00003003a00d6
:1007f000cfb097000128a300080032000000e900f4
:1008000000814500b1c2b3000900e00001003200e0
:10081000d1c2b30001497800050037000138a300b8
:10082000030032000000e90001c2b30081757800c6
:10083000480190000201e90000015100808045005c
:100840004fb297008a0178000c0078003002070050
:100850009c0090000188a3000400320098009000e2
:10086000810f500001003d00010078004f07780023
:100870004f06be004f05be004f04be00cf00b100c2
:10088000000006000200fa00889fbe008a9fbe009a
:1008900080057800010478000200780018019000bb
:1008a0002805900098007800b1bf9f00b804900020
:1008b0000200e000020035000110a100b1bf9f005e
:1008c000ea815700820020008a0078003002be00d2
:1008d0002003be0008007800490007003fb99700d8
:1008e000f0006100030032000000e90001c3b30022
:1008f000817478003fb99700e8006100030032007e
:100900000000e90001c2b300817478004801900042
:100910000201e90000015100808044003fba9700c5
:100920008a0178000b007800f90107009b00900015
:100930000188a3000400320098009000810f50004d
:1009400001003d00010078004f05be004f04be00cd
:100950000080fa0000000600ea874700889fbe007a
:100960008a9fbe008e1f7800000478000300780084
:100970007287570084e2260055c72600049fbe00f8
:10098000c3962200030f78006c875700004feb00de
:1009900011059000a1049000910578000200e0008c
:1009a000020032000207780001003700728757000a
:1009b0000000e00002003a000e0078004e0407003c
:1009c0000a00e000030035008a0f500001003600e5
:1009d0000a0078000b027800890178000001780095
:1009e0008e00780008007800c90107004f077800e2
:1009f0004f05be004f04be00af00b100000006006e
:100a0000f4874700889fbe008a9fbe008c9fbe006f
:100a10008e1f78000605be000404be0081bf9f0043
:100a200082b79f00f3b79f00b0009000e1b79f002e
:100a30001301780092b79f0090069000400090004c
:100a40000000e900000678000d00e00001003d0014
:100a50001d0020008040eb00efb19700817178000d
:100a60001e0020001f0037000c06e9000fb09700a1
:100a7000cf80de006109b900a0b79f00b1b79f0029
:100a8000c2b79f00d3b79f000203be000002be00a2
:100a90000800be000a01be006905070000077800d3
:100aa0000e4078000043b000efb0970080707e00e9
:100ab0008d06e9000fb997000201e90082bf9f008f
:100ac0002fb29700bfb297004fb39700dfb39700e4
:100ad0000800be000a01be00520507000205be0064
:100ae0000004be000c00e0000d003400e00f5400d4
:100af000e08f5c00e00f5d00e08f5d00daff3a0000
:100b00000d00e000d8ff3c008fb997000300e00023
:100b1000030034001fb097000018a300d2ff3a0072
:100b20000e00e00002003a00ffb097001140a10063
:100b30000c0078004f0778004f06be004f05be003e
:100b40004f04be004f01b100000006000200fa0091
:100b5000889fbe008a9fbe000005780001047800cf
:100b60000200780018019000a80490009800780016
:100b7000b1bf9f00b80590000200e0000200350000
:100b80000110a100b1bf9f00ea815700a200200020
:100b9000890078003002be002003be000800780003
:100ba00097ff0700480190000201e9000001510091
:100bb000808045003fba9700890178000a007800dc
:100bc000530107009a0090000188a300040032003e
:100bd00098009000810f500001003d000100780056
:100be0004f05be004f04be000080fa000000060062
:100bf000fa874700889fbe008a9fbe008c9fbe0078
:100c00008e1f780080047800010478008205780047
:100c1000180190002805900018077800b80090008f
:100c20000200e000020035000e10a10001003700b4
:100c30001200200070006700e0b79f00090032003a
:100c40003b02be002b03be00e00f5200e08f5a00b3
:100c5000e00f5b00e08f5b00020032008a86e90053
:100c6000010037008a067800e8026700f5b79f00a8
:100c7000010032008d06e9003b02be002b03be00de
:100c8000e4af9f00f5af9f0086b79f0097b79f0026
:100c9000480690000c06e9000040eb0080707e00e2
:100ca000efb297007fb29700890378008104780043
:100cb000d8af9f00020478008bbf9f008a057800a0
:100cc000034578002a0037000c06e9006fab970057
:100cd0006f006300e90f500002003c000003b00009
:100ce000010037007005b0000a03fb001604b100d4
:100cf000f90f53000c003e00000378000650a000de
:100d00001606b100f90f530007003e00b4b79f006c
:100d1000a5b79f00c7b79f0096030700cfb3970002
:100d2000afb297003fb2970080747e000804e900dc
:100d30008d06e9006fa89700ffa897000fb19700f4
:100d40009fb19700460020008301d1000281d300ab
:100d50008180d3000080d3000603e900faff3a0047
:100d6000e0af9f00f1af9f0082b79f0093b79f0055
:100d7000e10f56000f0034006fa89700ffa89700fe
:100d80000fb197009fb19700e00f5000e08f58001f
:100d9000e00f5900e08f5900cbff3a000800e00057
:100da000c9ff3c000d00e000020034000e18a30053
:100db000c5ff3a0089007800f4b79f0087047800e7
:100dc0005fac97008a4178000b0578008fbd9700d3
:100dd0000500e000100032003b02be002b03be0005
:100de000e4af9f00f5af9f0086b79f0097b79f00c5
:100df000e00f5200e08f5a00e00f5b00e08f5b00d5
:100e0000050032000c06e90083707e000c06e90044
:100e100000c3b30080707e00ffb297000500e000c1
:100e2000030032000c06e90000c2b30080707e00af
:100e3000480190000201e9000c0151008c80400043
:100e40000e0278008a01780009007800b0000700df
:100e5000990090000188a3000400320098009000df
:100e6000810f500001003d00010078004f0778001d
:100e70004f06be004f05be004f04be00af01b100db
:100e8000000006008201780001017800f1ff2700d0
:100e90003f03370084082000848f50001d0032007b
:100ea0000d003c0014082000848f50002700320001
:100eb00002003c0004082000040037002408200041
:100ec000848f50003400320044082000848f50008a
:100ed00043003a0036003700040a2000848f500097
:100ee0002700320004003c0004092000848f5000d9
:100ef0003b003a0028003700020c2000828f50008f
:100f00002f003200020f2000828f500034003a0080
:100f10002b0037009380e9000200e000050032005a
:100f2000810978001102fb00cfa2de00612bb9001d
:100f30002800370081097800114278000482fb0004
:100f40008002eb006033b800220037001302780003
:100f5000e40052000200e000050032008109780040
:100f60001102be004fabde00860378001900370087
:100f7000810978001102be006033b8001500370007
:100f80009380e9008109780011027800cfa2de0089
:100f9000612bb9000f00370093027800e8805200ff
:100fa000810978003102be002103be00090037002c
:100fb0009380e9000200e00002003200f1ff3700f8
:100fc0009380e90081097800110278008002eb002b
:100fd0006033b8000498be000690be001000050003
:100fe0000000050044082000848f500025003200d6
:100ff00008003c0014082000848f500014003200c8
:1010000024082000848f50002400320004082000af
:101010000c00370004092000848f50001f003200ac
:1010200004003c0084082000848f500024003a0013
:101030000e003700040a2000848f50001100320097
:10104000040c2000848f50001d003a000d00370072
:101050009380e90081097800910078000108780008
:10106000cf91de008288be00140037009380e90033
:1010700081097800910078000108780082487800a2
:101080000e0037009380e900810978009100780014
:101090000108780082087800080037009380e90092
:1010a0008109780091007800010878006112b90088
:1010b000612bb9008498be008690be001000050028
:1010c00000000500889fbe000004780048009000e2
:1010d00082047800808f540001003600800478007c
:1010e000090178005800900018020700580090008d
:1010f0000900400050049800c80090008984500006
:10110000490498000048eb004f04be0000000600b0
:10111000f2874700889fbe008a9fbe008c9fbe005a
:101120008e1f7800800478000105780002047800a2
:10113000830578006107620002003a008b0f5400bb
:1011400008003900080178008a007800090078005a
:10115000dcff07008b0f540002003900880578007f
:101160001e003700088655000c017800f00f56006d
:101170000100360002012000010220007e8057009d
:10118000f90107008c0678000500370002012000f5
:10119000fe80570009007800caff0700f08656005d
:1011a000ef8f5600f9ff3e004461de0000ff2f0084
:1011b0000091b90002014600fe8057000900780046
:1011c000c0ff07000e00e00004003a0008017800ac
:1011d0008a00780009007800baff07000b00780049
:1011e0004f0778004f06be004f05be004f04be00fb
:1011f0002f01b100000006000000050000000500fe
:1012000000000500000178000040eb008080fb003a
:1012100081804000e380200063c278000404e00085
:1012200003003a00f080200060c078000000060053
:1012300092017800934f520004003a00f0802000a1
:1012400060c078000309e800010037000040e800b2
:10125000ea4f5000edff360000000600f687470019
:10126000889fbe008a9fbe008c9fbe008e1f7800a4
:1012700000057800010478008305780004067800f2
:101280000000eb00c0b79f008080eb00d1b79f004b
:10129000e0b79f00f2b79f000008200080bf9f00ca
:1012a00098007800010078008004eb00010037000e
:1012b0008904e800304178000204e00003003200b5
:1012c00053c2b300834f5100f9ff3a000900e00018
:1012d00004003200090178000a00780079ff070055
:1012e000188c44001807780050c2b3009e4f1000bd
:1012f0003f013a000e07e8000e0c7800100037009e
:10130000cfb097000100a0000b003700cfb09700ce
:101310000110a00008003700cfb097000120a00006
:1013200005003700cfb097000130a0000200370061
:10133000cfb097000140a000c1b79f00000ce800ab
:101340001800780090407800b2c2b30082cf5000fd
:10135000f1ff320007003c0002c2b30082cf500010
:10136000f0ff320032c2b30082cf500007003a00d3
:10137000efff3700d2c2b30082cf5000e0ff32004f
:1013800002c3b30082cf5000e0ff3200a2c2b3001c
:1013900082cf50000d003a00000ce8001c80e900ec
:1013a000000e780010007800e0b79f000000e00019
:1013b0000f003d00cfb097000100a200c1b79f0011
:1013c0000000ea00e0b79f0009003700390107007c
:1013d000e0b79f0001003700000ce800180078001b
:1013e0009000fb000103b100e98f5000faff3600c6
:1013f0004fb097000008a300020032000010a100c7
:10140000c0b79f0018007800e1c2b30090cf100071
:1014100016003a008000eb00d1b79f000000e80002
:10142000000c7800a1c2b30090cf100006003a0073
:10143000000ce8001c80e900000e78001000780025
:10144000d0b79f00090037001a010700d0b79f00ee
:1014500001003700000ce800180078009000fb0045
:101460000103b100e98f5000faff36000800780050
:1014700064ff070080467800180078001000fb0029
:10148000b501070091062000810f5000380032009e
:1014900012003c0041062000810f50003400320051
:1014a0000a003c0011062000810f5000200032008d
:1014b00031062000810f5000a000320051022000b0
:1014c000810f5000bc003a00b400370071062000c4
:1014d000810f5000b8003c00880037000107200051
:1014e000810f50005c00320007003c00e106200044
:1014f000810f50007a003200f1062000810f500069
:10150000ad003a003900370051072000810f50002c
:101510002700320081072000810f50004200320076
:1015200031072000810f5000a3003a008f003700e0
:101530008d80fb000c01780000fe2f000f004000a2
:10154000b80107000000e000a80032001800780091
:10155000000ce8009041780002fe2f000f014100ce
:10156000f88057000a00780024ff07000e003700bb
:101570008d80fb008c0178001200200000fe2f00ff
:101580000f00400043fe07000000e000970032001b
:10159000180ce80002fe2f000f014100f8805700f0
:1015a0000a0078005efc0700808444009000370049
:1015b0008d80fb008c0178000001eb0000fe2f0005
:1015c0000f00400033fe07000000e00087003200fb
:1015d000180ce80002fe2f000f014100f8805700b0
:1015e0000a00780059fd0700efff37008d80fb00ef
:1015f0008c0178000001eb0000fe2f000f0040007e
:1016000024fe07000000e00078003200180ce8001b
:1016100002fe2f000f014100f88057000a007800f9
:1016200098fc0700e0ff37008d80fb008c017800fc
:101630000001eb0000fe2f000f00400015fe070028
:101640000000e0006900320018007800000ce8009b
:10165000904178001c0037008c0178000001eb00fd
:10166000010f200000fe2f000f00400009fe0700c0
:101670000000e0005d003200180ce8000fb0970099
:101680009fb097002fb19700bfb19700e00f5000b7
:10169000e08f5800e00f5900e08f590009003a0030
:1016a000cfb597006fb4970060802000120107004b
:1016b0000b0278008801780000017800618020002a
:1016c0004700370083c7b30002fe2f000f0141001f
:1016d000f88057000a00780045fd0700b2ff370088
:1016e0000b8144008d80fb008c01780000fe2f00f0
:1016f0000f0040003bfe07003c0037008d80fb00e0
:101700000c01780000fe2f000f004000450107008b
:101710000000e0003500320018007800000ce800fe
:101720009041780002fe2f000f014100f880570021
:101730000a007800b1fe07009bff370000c8b30025
:1017400080cf560029003a00180ce8001c80e90000
:10175000000e780010407800e0df9f0013002000aa
:10176000e2fd2f000f0141000800370000c8b30060
:1017700080cf56001d003a00180ce8001c80e900dc
:10178000000e78008001eb0010017800f88057000f
:101790000a00780070fc070083ff370000c8b30020
:1017a00080cf560011003a00180ce8004fb29700a5
:1017b000efb19700080037000e0c78000000eb0036
:1017c000c0b79f00e0b79f000080eb00d0b79f003c
:1017d0000002eb008401780012002000c18020008c
:1017e0000a0078004afe07006fff3700180ce80077
:1017f000090078004f0778004f06be004f05be0075
:101800004f04be006f01b100000006008200fa0024
:10181000889fbe008a1f7800000578008204780047
:10182000c13f9f000004eb00100037000902780060
:1018300088017800a2f72f000f01410081f72f00e7
:101840008f8040000a00780084fe070008004000f6
:10185000880f500004003d00b004200020418800a3
:101860000084eb0004003700000478004f38970034
:101870001004e000edff3a00080078004f05780002
:101880004f04be000080fa000000060080007800cf
:101890001000200002022000828f5000040032005d
:1018a000e9805000e48f5000010036000000eb009a
:1018b00000000600889fbe008a1f7800000578009f
:1018c0000a047800984478000805e8000900fb0045
:1018d000eeff07000000e000f9ff3a00b0c2b300dd
:1018e00080cf540005003200d0c2b3008000eb006e
:1018f00080cf540005003a00020037008000eb0062
:1019000001003700110020000804e8000000eb008f
:10191000030037006a02b900020052000003b00061
:101920003801fb0003fd2f0082814100e98f510047
:10193000f8ff36000100e00001003a000000ea0074
:101940004f0578004f04be000000060080017800bb
:1019500002003700b15978000201e9000200e000fe
:10196000fcff3a0000000600889fbe008a9fbe0070
:10197000800478000200e0005b0032000140780043
:10198000814c780082814400f1f99f00e20f510000
:101990005500360091449800a1449800e1f99f0059
:1019a000d1f99f00e60f51004f003600b144980076
:1019b000c1f99f00e80f51004b0036000905ea000d
:1019c000630565000a8444000a055100c1ff2f0029
:1019d000010565000080fb008000eb001210200074
:1019e00013102000f0000700008cbe000a01440024
:1019f00060b99f0071b99f00e80f55003a003600aa
:101a00002004980031049800400498005104980084
:101a100020b99f0031b99f0040b99f0051b99f0084
:101a2000f80f5500300036006004980071049800eb
:101a3000000c9800110c9800200c9800310c9800b4
:101a4000400c9800510c980020b19f0031b19f00cc
:101a500040b19f0051b19f0060b19f0071b19f00e4
:101a600000b99f0011b99f00640164007801410032
:101a700002044400020555006011b8000203be00d4
:101a80000002be000403be006022b8000000720025
:101a9000818072000201730083817300100037009f
:101aa000009cbe000294be004004980051049800bf
:101ab0006204980073049800000c9800110c9800c0
:101ac000220c9800330c9800400c9800510c9800a0
:101ad000620c9800730c98000a02b1000802b00072
:101ae000ff0f5500eeff3e00090078004f05be00d5
:101af0004f04be000000060080007800040037009c
:101b00003104e00002003a0000005100000006002d
:101b1000010178000108a300f9ff3a008101780073
:101b200031017800f4ef2f00020242000281ea0046
:101b3000020162000408280004016100f7ff32007e
:101b400083007800010178003104e000fdff3a00d5
:101b50000000510000000600f1fb2f0080804000d3
:101b6000f98f500001003e000050a0000000060068
:101b7000f9ff3700f1f92f0080804000f98f500005
:101b800001003e00f005b20000000600f9ff37003a
:101b9000f28747008e1f7800020278000301780068
:101ba0000000e0000200320000077800010037006a
:101bb000728757008002eb000100e0000100320054
:101bc0008102e90070805700060009000018eb0050
:101bd0000080eb0080bf9f002310200093bf9f0078
:101be000aebf9f00b1bf9f00c5bf9f000100e000d6
:101bf00003003d00b10420002141880006003700a9
:101c0000004feb00eebf9f00debf9f008400780016
:101c100070805700220007004f0778002f01b100a5
:101c200000000600881f78000004780000082000eb
:101c3000808f50001700350010082000808f500062
:101c40000b00340030082000808f500011003a0053
:101c50009200780068805000000978003002be00d1
:101c60002003be00049cbe000694be00070037009f
:101c70009202780064805200000978001000be00d3
:101c800015000700009cbe000294be00100020005a
:101c9000010037000000eb004f0478000000060050
:101ca0000200fa00881f780000047800e2bf9f005d
:101cb0006481570008007800d4fe07009800900067
:101cc0000148a300010032000080eb004f047800bf
:101cd0000080fa0000000600810378001d00070064
:101ce0000001be006000b8000478a30013003a00b1
:101cf0006220e10015003e000d0039008301d10093
:101d00000281d3008180d3008301d1000281d300fe
:101d10008180d3008301d1000281d3008180d30070
:101d20000538b000c42add00f300b20083817200e0
:101d300007f0a70003f0a0000000060083ff2700c3
:101d4000020020006110b900f9ff370003ff2700ef
:101d5000f7ff3700c70ade00f107b200f50fb20047
:101d600008003200e1cf4200020032000170a00002
:101d700024000500810f70000100320004080500f6
:101d800044000500810f700002003a0014000500b5
:101d90008502e9000000400081c04800fcff3b00d4
:101da0000170a00024000500020ab900001bb90060
:101db0000200b800810042008100430000000600dc
:101dc000889fbe008a9fbe0030044200b0844a0053
:101dd00030054b0090854b006000b1000898be00b4
:101de0000a90be000440e10005c8e10006d0e10011
:101df00007d8e10002003100680040001008e80048
:101e00004f05be004f04be0000000600889fbe00c4
:101e10008a9fbe003004be002005be000418540096
:101e200005985c0006185d0007985d001100200011
:101e30000440e10005c8e10006d0e10007d8e10058
:101e4000010039008000eb00108810004f05be0033
:101e50004f04be00000006001200fa00889fbe007a
:101e60008a9fbe008c9fbe00e0b79f00f1b79f0025
:101e700082bf9f0093bf9f000605be000404be0002
:101e80000000eb00d0b79f00c0b79f00b0b79f0025
:101e9000a0b79f0090b79f00000678005fb1970041
:101ea000cfb09700820141003fb097000200e000f0
:101eb00004003d00370007007e805700c0ff070088
:101ec00003003700330007007e805700cfff070074
:101ed000dfb697000d00e0000c0035006fb29700f0
:101ee000ffb297000fbb97009fbb97001000200028
:101ef000010020006011b8000002720081827200af
:101f000002037300838373001b0007000c06e800c4
:101f100001042000810f5600e0ff3a000d00e000b0
:101f200004003d000802be000a03be007e80570088
:101f3000a3ff07005fa897000000e00005003a003b
:101f40001fb29700afb297003fb39700cfb397008f
:101f5000090007006fb09700ffb097000fb9970016
:101f60009fb997004f06be004f05be004f04be004c
:101f70000080fa00000006000100070000000600d3
:101f8000a4b79f00b5b79f00c6b79f00d7b79f0003
:101f9000000006004f09de0082817100b3b79f0088
:101fa0004f01de008180400082807000a1b79f0059
:101fb0008fb097004f09de00000040000200700063
:101fc00090b79f007fa897004f01de0081804000fe
:101fd0008280700081b79f000d0007004f3ade003d
:101fe0000000400004007000f0af9f0008000700f0
:101ff0000402420085824a0006034b0087834b009f
:10200000dfff07000802be000a03be000000060052
:102010002fb29700bfb297004fb39700dfb397007e
:1020200000000600881f780018002000881f780034
:1020300089ff07008f87e9004f0478000000060041
:10204000801feb0084ff07008f87e9000000060077
:10205000889fbe008a9fbe00e00f5000e08f5800ae
:10206000e00f5900e08f59000c003d006044b800bb
:102070006055b8000000540081805c0002015d00e2
:1020800083815d00180020001500070008003d0056
:10209000180007000004eb00050037000004eb0007
:1020a0000f00070002003d0012000700180020008a
:1020b000dcff07000800e000060032006022b800e4
:1020c0006033b8000000520081805a0002015b00ba
:1020d00083815b004f05be004f04be000000060078
:1020e000e00f5200e08f5a00e00f5b00e08f5b00d2
:1020f000000006006044b8006055b80004025400b7
:1021000085825c0006035d0087835d000000060099
:10211000889fbe008a9fbe008c1f7800e00f500091
:10212000e08f5800e00f5900e08f59000d003d008e
:102130006044b8006055b8000000540081805c0025
:1021400002015d0083815d001c0020000820e10089
:1021500009a8e1000ab0e1000bb8e1000d003d0064
:10216000080037000006eb00e00f5200e08f5a0035
:10217000e00f5b00e08f5b0006003d006044b800ac
:102180006055b8000402540085825c0006035d00bf
:1021900087835d00aaff07000c00e0000600320004
:1021a0006022b8006033b8000000520081805a00fd
:1021b00002015b0083815b004f0678004f05be0083
:0821c0004f04be000000060000
:020000040000fa
:1021c8007f8500008b910000979d0000a3a9000067
:1021d800aeb40000b9be0000c3c70000cbcf0000fa
:1021e800d3d60000d9dc0000dee00000e2e4000005
:1021f800e5e60000e7e70000e7e70000e6e50000a5
:10220800e4e20000e0de0000dcd90000d6d30000e4
:10221800cfcb0000c7c30000beb90000b4ae0000b9
:10222800a9a300009d970000918b0000857f000006
:10223800797300006d670000615b0000554f000076
:102248004a4400003f3a0000353100002d290000c3
:10225800252200001f1c00001a1800001614000098
:1022680013120000111100001111000012130000d8
:1022780014160000181a00001c1f00002225000078
:10228800292d0000313500003a3f0000444a000083
:102298004f5500005b610000676d00007379000016
:1022a8007f8500008b910000979d0000a3a9000086
:1022b800aeb40000b9be0000c3c70000cbcf000019
:1022c8003232000030320000303900003032000075
:1022d80035000000457200006b6900006e200000a8
:1022e800424f00004c41000054000000253000001f
:1022f80032750000487a0000202000000025000008
:102308002525000030330000752000002000000063
:020000040000fa
:102318000000fa00cc22a8002001200001002000c3
:10232800a0010700cc22a900800b2000010020009a
:102338009c0107000080fa00000006000200fa0075
:10234800004f78009e40780061c0600061406000e6
:10235800614060000080fb00610060004200dd0019
:10236800611680000120a10001007000601688003d
:102378001e80fb000000d100004078006140600032
:1023880061406000614060000080fb006100600007
:102398004300dd00611680000130a10001007000db
:1023a800601688001e80fb004200de0000407800b6
:1023b8006140600061406000614060000080fb0097
:1023c800610060004400dd00611680000140a1004a
:1023d80001007000601688001e80fb004300de00cc
:1023e800004078006140600061406000614060002a
:1023f8000080fb00610060004500dd006116800080
:102408000150a1000100700060168800c0ff07009d
:102418000080fa00000006000200fa00004f780071
:10242800cc02a9001e80fb004400de0000407800ba
:10243800c2ff07009e4078006fc06000bfff070022
:10244800a0cc210001002000560107000080fa00fe
:10245800000006000200fa00004f7800cc02a80035
:102468001e4078000080fb004400de000040780039
:10247800b2ff07001e4078006f406000afff070002
:102488000017200001002000460107000080fa0024
:10249800000006000200fa00000f78000400370070
:1024a8001e007800104078001e0fe800e9ff0700c2
:1024b8001e007800104078000004e000f8ff3a00a1
:1024c8000080fa00000006000000fa00a0fb2c00c3
:1024d8002100200033010700cc02a900cc22a9006a
:1024e80030c0b30095ff0700907f24000100200052
:1024f8002c01070030c0b30090ff070080222000a5
:10250800010020002701070030c0b3008bff07003f
:1025180080222000010020002201070020c0b30013
:1025280086ff070080222000010020001d0107000f
:1025380080c2b300b8ff0700c0c0b300b6ff0700f1
:1025480010c0b300b4ff0700907f240001002000f2
:10255800140107000080fa00000006000000fa00dd
:10256800e0fb2f0060198800000e20000019880089
:102578002223ef0020f021002019880021e3a80081
:102588000080fa00000006000400fa0020479800c6
:102598002e4090007f4060000080fb007f006000bc
:1025a8004219800001fe2f008100610001007000c7
:1025b800401988002023a8000000eb00000f7800d5
:1025c800050037001e0fe800803821009e007800c3
:1025d800808f500005003e000019800061006000f7
:1025e8000000e000f7ff32000100370000000000a3
:1025f8002003a900001880000080fa0000000600ef
:102608000000fa00103a8000000178000260a10082
:1026180060042000710520002374200080497800a0
:1026280081497800824978004136800000fe2f00f9
:10263800008060002001b3004036880041368000e9
:10264800f00f2e0080806000003021000100700033
:1026580040368800103a8000000178000260a0002f
:102668006004200071052000237420008049780050
:1026780081497800824978001021ef000621ef0097
:10268800f00f2000600888008421ef00f007200088
:10269800100c8800f0072000000c88008461a90055
:1026a800210c800080ff2f00008060006000b300d4
:1026b800200c88008a21ef00f0072000400c8800d9
:1026c800f0072000300c88008a61a900510c8000b6
:1026d80080ff2f00008060006000b300500c88006d
:1026e80011e1a800c1e1a900010e800030ff2f0010
:1026f80000806000000e8800010e8000c0ff2f00df
:1027080000806000000e8800f00f2000200e880076
:10271800c821ef00c8c1a80000f02300a00e88005f
:10272800d021ef00e00f2000d00e8800c1e1a80002
:102738000080fa00000006000000fa0013e1a9007a
:1027480091088000f0fc2f0000806000900888004d
:10275800007d2000700888004105800080ff2f0060
:10276800008060005000b300400588008500a90083
:102778009500a80013e1a8000080fa0000000600f8
:102788001c00fa00e0fb2f006019880010002000f0
:1027980000168800c422ef00c822ef00cc22ef0008
:1027a8007000200080168800d422ef006bff07001d
:1027b80045ff070092ff0700dfff070000c8b300ce
:1027c80015ff07004016290032ff070000ccb300b0
:1027d80011ff0700e01629002eff070060c0b300b4
:1027e80069ff0700000f78001e0078004200de0035
:1027f8000040780002e8b7000040eb0062ff0700e5
:10280800100798001e0090008000eb004206200090
:102818000289b900020178006002b90084017800d9
:1028280003014100430620000300b80001014100f4
:1028380082007800f23f20000300200099f707008b
:1028480020079800310798002e009000be009000e5
:102858008100d1000080d3006a004000e080480079
:1028680040079800510798004e019000de01900043
:102878004718dd00c910de00810070004710dd0038
:102888000001be0080a823008103200085f707000f
:10289800000078000000e90070088800d482a900d0
:1028a80090168000620060000000e00002003a001c
:1028b800d462a80001003700d462a90090168000f5
:1028c800640060000000e00002003a00d4a2a80002
:1028d80001003700d4a2a900a0c8b300cefe0700ab
:1028e800ce0090006c004700811f7800a1172900d6
:1028f800811f78007bf70700e48757006c004700ca
:10290800e4fe0700a0ccb300c3fe0700ae009000b1
:102918006c004700811f780031182900811f78005a
:1029280070f70700e48757006c004700d9fe0700de
:10293800a0fb2c00210020001a000700a7ff370089
:020000040000fa
:102948000408000002000000000000000008000069
:1029580004000000020000002a55ff0000000000eb
:10296800060800001e00000002000000286e690032
:102978006c29000025006800076c09004c836a0078
:102988009074a0007ac000008068880000846c0001
:1029980082008100240800000200000000000000fe
:0429a800000000002b
:020000040000fa
:1029ac00f03fb1000180b10006003500ee030900d4
:1029bc0000000000403fb1000180b100fbff3d0072
:1029cc001000b000203fb00002003500008009006c
:0829dc000000000000000600ed
:020000040000fa
:0200000401f009
:04000c0000000000f0
:020000040000fa
:0200000401f009
:040014005f00000089
:020000040000fa
:0200000401f009
:04001c00dfff000002
:00000001FF
